{
  "address": "0x837D3dDF0b8F4B6a71A23fa7E8665Aa422fE880a",
  "abi": [
    {
      "inputs": [],
      "stateMutability": "nonpayable",
      "type": "constructor"
    },
    {
      "anonymous": false,
      "inputs": [
        {
          "components": [
            {
              "internalType": "string",
              "name": "longitude",
              "type": "string"
            },
            {
              "internalType": "string",
              "name": "latitude",
              "type": "string"
            }
          ],
          "indexed": false,
          "internalType": "struct PointsTracker.Location",
          "name": "location",
          "type": "tuple"
        },
        {
          "indexed": false,
          "internalType": "address",
          "name": "user",
          "type": "address"
        },
        {
          "indexed": false,
          "internalType": "uint32",
          "name": "points",
          "type": "uint32"
        }
      ],
      "name": "AllocatePoints",
      "type": "event"
    },
    {
      "anonymous": false,
      "inputs": [
        {
          "indexed": true,
          "internalType": "address",
          "name": "previousOwner",
          "type": "address"
        },
        {
          "indexed": true,
          "internalType": "address",
          "name": "newOwner",
          "type": "address"
        }
      ],
      "name": "OwnershipTransferred",
      "type": "event"
    },
    {
      "inputs": [
        {
          "internalType": "address",
          "name": "user",
          "type": "address"
        }
      ],
      "name": "addAdmin",
      "outputs": [],
      "stateMutability": "nonpayable",
      "type": "function"
    },
    {
      "inputs": [
        {
          "internalType": "address",
          "name": "",
          "type": "address"
        }
      ],
      "name": "adminGroup",
      "outputs": [
        {
          "internalType": "bool",
          "name": "",
          "type": "bool"
        }
      ],
      "stateMutability": "view",
      "type": "function"
    },
    {
      "inputs": [
        {
          "components": [
            {
              "internalType": "string",
              "name": "longitude",
              "type": "string"
            },
            {
              "internalType": "string",
              "name": "latitude",
              "type": "string"
            }
          ],
          "internalType": "struct PointsTracker.Location",
          "name": "location",
          "type": "tuple"
        },
        {
          "internalType": "address",
          "name": "toUser",
          "type": "address"
        },
        {
          "internalType": "uint32",
          "name": "points",
          "type": "uint32"
        }
      ],
      "name": "allocatePoints",
      "outputs": [],
      "stateMutability": "nonpayable",
      "type": "function"
    },
    {
      "inputs": [
        {
          "internalType": "bytes32",
          "name": "",
          "type": "bytes32"
        },
        {
          "internalType": "address",
          "name": "",
          "type": "address"
        }
      ],
      "name": "locationToUserPoints",
      "outputs": [
        {
          "internalType": "uint32",
          "name": "",
          "type": "uint32"
        }
      ],
      "stateMutability": "view",
      "type": "function"
    },
    {
      "inputs": [
        {
          "internalType": "bytes32",
          "name": "",
          "type": "bytes32"
        }
      ],
      "name": "locationTotalPoints",
      "outputs": [
        {
          "internalType": "uint32",
          "name": "",
          "type": "uint32"
        }
      ],
      "stateMutability": "view",
      "type": "function"
    },
    {
      "inputs": [],
      "name": "owner",
      "outputs": [
        {
          "internalType": "address",
          "name": "",
          "type": "address"
        }
      ],
      "stateMutability": "view",
      "type": "function"
    },
    {
      "inputs": [
        {
          "internalType": "address",
          "name": "admin",
          "type": "address"
        }
      ],
      "name": "removeAdmin",
      "outputs": [],
      "stateMutability": "nonpayable",
      "type": "function"
    },
    {
      "inputs": [],
      "name": "renounceOwnership",
      "outputs": [],
      "stateMutability": "nonpayable",
      "type": "function"
    },
    {
      "inputs": [
        {
          "internalType": "address",
          "name": "newOwner",
          "type": "address"
        }
      ],
      "name": "transferOwnership",
      "outputs": [],
      "stateMutability": "nonpayable",
      "type": "function"
    },
    {
      "inputs": [
        {
          "internalType": "address",
          "name": "",
          "type": "address"
        }
      ],
      "name": "userTotalPoints",
      "outputs": [
        {
          "internalType": "uint32",
          "name": "",
          "type": "uint32"
        }
      ],
      "stateMutability": "view",
      "type": "function"
    }
  ],
  "transactionHash": "0x730743f6f597f2a4a7cff06697e2463d15cc45c451dc8ab7509938fc474d2578",
  "args": [],
  "solcInputHash": "128d5472154afd670a2d1d718ada1b51",
  "bytecode": "0x608060405234801561001057600080fd5b5061002d61002261003260201b60201c565b61003a60201b60201c565b6100fe565b600033905090565b60008060009054906101000a900473ffffffffffffffffffffffffffffffffffffffff169050816000806101000a81548173ffffffffffffffffffffffffffffffffffffffff021916908373ffffffffffffffffffffffffffffffffffffffff1602179055508173ffffffffffffffffffffffffffffffffffffffff168173ffffffffffffffffffffffffffffffffffffffff167f8be0079c531659141344cd1fd0a4f28419497f9722a3daafe3b4186f6b6457e060405160405180910390a35050565b6110bf8061010d6000396000f3fe608060405234801561001057600080fd5b506004361061009e5760003560e01c8063a026521d11610066578063a026521d14610133578063d2625b151461014f578063f2fde38b1461017f578063f6fbb3591461019b578063fd1f4578146101cb5761009e565b80631785f53c146100a357806370480275146100bf578063715018a6146100db5780638da5cb5b146100e55780639a60de7d14610103575b600080fd5b6100bd60048036038101906100b89190610a3b565b6101fb565b005b6100d960048036038101906100d49190610a3b565b6102c9565b005b6100e361039f565b005b6100ed610427565b6040516100fa9190610c57565b60405180910390f35b61011d60048036038101906101189190610a3b565b610450565b60405161012a9190610d4d565b60405180910390f35b61014d60048036038101906101489190610ad5565b610473565b005b61016960048036038101906101649190610a68565b6106cb565b6040516101769190610d4d565b60405180910390f35b61019960048036038101906101949190610a3b565b6106ee565b005b6101b560048036038101906101b09190610a3b565b6107e6565b6040516101c29190610c72565b60405180910390f35b6101e560048036038101906101e09190610a95565b610806565b6040516101f29190610d4d565b60405180910390f35b610203610838565b73ffffffffffffffffffffffffffffffffffffffff16610221610427565b73ffffffffffffffffffffffffffffffffffffffff1614610277576040517f08c379a000000000000000000000000000000000000000000000000000000000815260040161026e90610ccd565b60405180910390fd5b600160008273ffffffffffffffffffffffffffffffffffffffff1673ffffffffffffffffffffffffffffffffffffffff16815260200190815260200160002060006101000a81549060ff021916905550565b6102d1610838565b73ffffffffffffffffffffffffffffffffffffffff166102ef610427565b73ffffffffffffffffffffffffffffffffffffffff1614610345576040517f08c379a000000000000000000000000000000000000000000000000000000000815260040161033c90610ccd565b60405180910390fd5b60018060008373ffffffffffffffffffffffffffffffffffffffff1673ffffffffffffffffffffffffffffffffffffffff16815260200190815260200160002060006101000a81548160ff02191690831515021790555050565b6103a7610838565b73ffffffffffffffffffffffffffffffffffffffff166103c5610427565b73ffffffffffffffffffffffffffffffffffffffff161461041b576040517f08c379a000000000000000000000000000000000000000000000000000000000815260040161041290610ccd565b60405180910390fd5b6104256000610840565b565b60008060009054906101000a900473ffffffffffffffffffffffffffffffffffffffff16905090565b60046020528060005260406000206000915054906101000a900463ffffffff1681565b60011515600160003373ffffffffffffffffffffffffffffffffffffffff1673ffffffffffffffffffffffffffffffffffffffff16815260200190815260200160002060009054906101000a900460ff16151514610506576040517f08c379a00000000000000000000000000000000000000000000000000000000081526004016104fd90610cad565b60405180910390fd5b6000836040516020016105199190610ced565b604051602081830303815290604052805190602001209050816002600083815260200190815260200160002060008573ffffffffffffffffffffffffffffffffffffffff1673ffffffffffffffffffffffffffffffffffffffff16815260200190815260200160002060008282829054906101000a900463ffffffff166105a09190610deb565b92506101000a81548163ffffffff021916908363ffffffff160217905550816003600083815260200190815260200160002060008282829054906101000a900463ffffffff166105f09190610deb565b92506101000a81548163ffffffff021916908363ffffffff16021790555081600460008573ffffffffffffffffffffffffffffffffffffffff1673ffffffffffffffffffffffffffffffffffffffff16815260200190815260200160002060008282829054906101000a900463ffffffff1661066c9190610deb565b92506101000a81548163ffffffff021916908363ffffffff1602179055507fe06523f8cc184762c381e61445df8bd0d2885e726189b21d8c5ba6ab9f3859d38484846040516106bd93929190610d0f565b60405180910390a150505050565b60036020528060005260406000206000915054906101000a900463ffffffff1681565b6106f6610838565b73ffffffffffffffffffffffffffffffffffffffff16610714610427565b73ffffffffffffffffffffffffffffffffffffffff161461076a576040517f08c379a000000000000000000000000000000000000000000000000000000000815260040161076190610ccd565b60405180910390fd5b600073ffffffffffffffffffffffffffffffffffffffff168173ffffffffffffffffffffffffffffffffffffffff1614156107da576040517f08c379a00000000000000000000000000000000000000000000000000000000081526004016107d190610c8d565b60405180910390fd5b6107e381610840565b50565b60016020528060005260406000206000915054906101000a900460ff1681565b60026020528160005260406000206020528060005260406000206000915091509054906101000a900463ffffffff1681565b600033905090565b60008060009054906101000a900473ffffffffffffffffffffffffffffffffffffffff169050816000806101000a81548173ffffffffffffffffffffffffffffffffffffffff021916908373ffffffffffffffffffffffffffffffffffffffff1602179055508173ffffffffffffffffffffffffffffffffffffffff168173ffffffffffffffffffffffffffffffffffffffff167f8be0079c531659141344cd1fd0a4f28419497f9722a3daafe3b4186f6b6457e060405160405180910390a35050565b600061091761091284610d8d565b610d68565b90508281526020810184848401111561093357610932610f5d565b5b61093e848285610e7d565b509392505050565b60008135905061095581611044565b92915050565b60008135905061096a8161105b565b92915050565b600082601f83011261098557610984610f4e565b5b8135610995848260208601610904565b91505092915050565b6000604082840312156109b4576109b3610f53565b5b6109be6040610d68565b9050600082013567ffffffffffffffff8111156109de576109dd610f58565b5b6109ea84828501610970565b600083015250602082013567ffffffffffffffff811115610a0e57610a0d610f58565b5b610a1a84828501610970565b60208301525092915050565b600081359050610a3581611072565b92915050565b600060208284031215610a5157610a50610f67565b5b6000610a5f84828501610946565b91505092915050565b600060208284031215610a7e57610a7d610f67565b5b6000610a8c8482850161095b565b91505092915050565b60008060408385031215610aac57610aab610f67565b5b6000610aba8582860161095b565b9250506020610acb85828601610946565b9150509250929050565b600080600060608486031215610aee57610aed610f67565b5b600084013567ffffffffffffffff811115610b0c57610b0b610f62565b5b610b188682870161099e565b9350506020610b2986828701610946565b9250506040610b3a86828701610a26565b9150509250925092565b610b4d81610e25565b82525050565b610b5c81610e37565b82525050565b6000610b6d82610dbe565b610b778185610dc9565b9350610b87818560208601610e8c565b610b9081610f6c565b840191505092915050565b6000610ba8602683610dda565b9150610bb382610f7d565b604082019050919050565b6000610bcb603983610dda565b9150610bd682610fcc565b604082019050919050565b6000610bee602083610dda565b9150610bf98261101b565b602082019050919050565b60006040830160008301518482036000860152610c218282610b62565b91505060208301518482036020860152610c3b8282610b62565b9150508091505092915050565b610c5181610e6d565b82525050565b6000602082019050610c6c6000830184610b44565b92915050565b6000602082019050610c876000830184610b53565b92915050565b60006020820190508181036000830152610ca681610b9b565b9050919050565b60006020820190508181036000830152610cc681610bbe565b9050919050565b60006020820190508181036000830152610ce681610be1565b9050919050565b60006020820190508181036000830152610d078184610c04565b905092915050565b60006060820190508181036000830152610d298186610c04565b9050610d386020830185610b44565b610d456040830184610c48565b949350505050565b6000602082019050610d626000830184610c48565b92915050565b6000610d72610d83565b9050610d7e8282610ebf565b919050565b6000604051905090565b600067ffffffffffffffff821115610da857610da7610f1f565b5b610db182610f6c565b9050602081019050919050565b600081519050919050565b600082825260208201905092915050565b600082825260208201905092915050565b6000610df682610e6d565b9150610e0183610e6d565b92508263ffffffff03821115610e1a57610e19610ef0565b5b828201905092915050565b6000610e3082610e4d565b9050919050565b60008115159050919050565b6000819050919050565b600073ffffffffffffffffffffffffffffffffffffffff82169050919050565b600063ffffffff82169050919050565b82818337600083830152505050565b60005b83811015610eaa578082015181840152602081019050610e8f565b83811115610eb9576000848401525b50505050565b610ec882610f6c565b810181811067ffffffffffffffff82111715610ee757610ee6610f1f565b5b80604052505050565b7f4e487b7100000000000000000000000000000000000000000000000000000000600052601160045260246000fd5b7f4e487b7100000000000000000000000000000000000000000000000000000000600052604160045260246000fd5b600080fd5b600080fd5b600080fd5b600080fd5b600080fd5b600080fd5b6000601f19601f8301169050919050565b7f4f776e61626c653a206e6577206f776e657220697320746865207a65726f206160008201527f6464726573730000000000000000000000000000000000000000000000000000602082015250565b7f5573657220646f6573206e6f74206861766520746865207065726d697373696f60008201527f6e7320746f20706572666f726d207468697320616374696f6e00000000000000602082015250565b7f4f776e61626c653a2063616c6c6572206973206e6f7420746865206f776e6572600082015250565b61104d81610e25565b811461105857600080fd5b50565b61106481610e43565b811461106f57600080fd5b50565b61107b81610e6d565b811461108657600080fd5b5056fea26469706673582212204bacc55e4c9ea2a31936b73f0b33ca30aa8db586417148c9b9e571ce1e0d00d464736f6c63430008070033",
  "devdoc": {
    "kind": "dev",
    "methods": {
      "owner()": {
        "details": "Returns the address of the current owner."
      },
      "renounceOwnership()": {
        "details": "Leaves the contract without owner. It will not be possible to call `onlyOwner` functions anymore. Can only be called by the current owner. NOTE: Renouncing ownership will leave the contract without an owner, thereby removing any functionality that is only available to the owner."
      },
      "transferOwnership(address)": {
        "details": "Transfers ownership of the contract to a new account (`newOwner`). Can only be called by the current owner."
      }
    },
    "version": 1
  },
  "userdoc": {
    "kind": "user",
    "methods": {},
    "version": 1
  },
  "storageLayout": {
    "storage": [
      {
        "astId": 7,
        "contract": "src/PointsTracker.sol:PointsTracker",
        "label": "_owner",
        "offset": 0,
        "slot": "0",
        "type": "t_address"
      },
      {
        "astId": 8204,
        "contract": "src/PointsTracker.sol:PointsTracker",
        "label": "adminGroup",
        "offset": 0,
        "slot": "1",
        "type": "t_mapping(t_address,t_bool)"
      },
      {
        "astId": 8210,
        "contract": "src/PointsTracker.sol:PointsTracker",
        "label": "locationToUserPoints",
        "offset": 0,
        "slot": "2",
        "type": "t_mapping(t_bytes32,t_mapping(t_address,t_uint32))"
      },
      {
        "astId": 8214,
        "contract": "src/PointsTracker.sol:PointsTracker",
        "label": "locationTotalPoints",
        "offset": 0,
        "slot": "3",
        "type": "t_mapping(t_bytes32,t_uint32)"
      },
      {
        "astId": 8218,
        "contract": "src/PointsTracker.sol:PointsTracker",
        "label": "userTotalPoints",
        "offset": 0,
        "slot": "4",
        "type": "t_mapping(t_address,t_uint32)"
      }
    ],
    "types": {
      "t_address": {
        "encoding": "inplace",
        "label": "address",
        "numberOfBytes": "20"
      },
      "t_bool": {
        "encoding": "inplace",
        "label": "bool",
        "numberOfBytes": "1"
      },
      "t_bytes32": {
        "encoding": "inplace",
        "label": "bytes32",
        "numberOfBytes": "32"
      },
      "t_mapping(t_address,t_bool)": {
        "encoding": "mapping",
        "key": "t_address",
        "label": "mapping(address => bool)",
        "numberOfBytes": "32",
        "value": "t_bool"
      },
      "t_mapping(t_address,t_uint32)": {
        "encoding": "mapping",
        "key": "t_address",
        "label": "mapping(address => uint32)",
        "numberOfBytes": "32",
        "value": "t_uint32"
      },
      "t_mapping(t_bytes32,t_mapping(t_address,t_uint32))": {
        "encoding": "mapping",
        "key": "t_bytes32",
        "label": "mapping(bytes32 => mapping(address => uint32))",
        "numberOfBytes": "32",
        "value": "t_mapping(t_address,t_uint32)"
      },
      "t_mapping(t_bytes32,t_uint32)": {
        "encoding": "mapping",
        "key": "t_bytes32",
        "label": "mapping(bytes32 => uint32)",
        "numberOfBytes": "32",
        "value": "t_uint32"
      },
      "t_uint32": {
        "encoding": "inplace",
        "label": "uint32",
        "numberOfBytes": "4"
      }
    }
  }
}